:100000000C94B5000C94D2000C94D2000C94D20045
:100010000C94D2000C94D2000C94D2000C94D20018
:100020000C94D2000C94D2000C94D2000C94D20008
:100030000C94D2000C94D2000C94D2000C94D200F8
:100040000C94D2000C94D2000C94D2000C94D200E8
:100050000C94D2000C94D2000C94D2000C94D200D8
:100060000C94D2000C94D2006E616E00696E660032
:1000700000407A10F35A00A0724E18090010A5D45F
:10008000E80000E87648170000E40B54020000CABC
:100090009A3B000000E1F505000080969800000002
:1000A00040420F000000A086010000001027000061
:1000B0000000E803000000006400000000000A00E7
:1000C000000000000100000000002C76D888DC67EA
:1000D0004F0823DFC1DFAE59E1B1B796E5E3E45342
:1000E000C63AE651997696E8E6C28426EB898C9B5F
:1000F00062ED407C6FFCEFBC9C9F40F2BAA56FA5FF
:10010000F490055A2AF75C936B6CF9676DC11BFC80
:10011000E0E40D47FEF520E6B500D0ED902E03009B
:10012000943577050080841E080000204E0A0000E8
:1001300000C80C333333330F986E12831141EF8DA7
:100140002114893BE65516CFFEE6DB18D1844B38E7
:100150001BF77C1D901DA4BBE424203284725E2218
:100160008100C9F124ECA1E53D2711241FBECFEF8A
:10017000D8E0DEBFCDBF11E0A0E0B1E0EEE8FFE0E7
:1001800002C005900D92A635B107D9F711E0A6E59A
:10019000B1E001C01D92AE3AB107E1F70E94A3059C
:1001A0000C94C5070C940000A1E1B0E0EAEDF0E08A
:1001B0000C94AC053C017F876E876A01FC011782B5
:1001C0001682838181FD03C06FEF7FEF6FC39E01B5
:1001D0002F5F3F4F398B288BF3012381EE85FF85FD
:1001E00023FD859123FF8191FF87EE87882309F402
:1001F0005AC3853251F4EE85FF8523FD859123FF97
:100200008191FF87EE87853229F490E0B3010E9447
:10021000D106E2CF982F10E0882499241032B0F450
:100220009B3269F09C3228F4903251F0933271F491
:100230000BC09D3239F0903349F4116028C0126030
:10024000146025C0186023C0106121C017FD2AC0AA
:10025000892F80538A3078F416FF06C0FAE09F9EFB
:10026000902C1124980E13C03AE0839E802C112408
:10027000880E10620CC09E3221F416FD14C3106467
:1002800006C09C3611F4106802C0983659F4EE8509
:10029000FF8523FD959123FF9191FF87EE87992399
:1002A00009F0BCCF892F8554833020F4812F8061E1
:1002B000905E07C0892F8556833008F09FC1812F3B
:1002C0008F7E86FD02C076E0972E6FE3F62EF82231
:1002D000953619F4F0E4FF2A07C0963619F420E8A1
:1002E000F22A02C091109A94F7FE0AC03BE3391536
:1002F00018F45CE3B52E02C0B92CB39427E009C012
:1003000047E0491520F4BB2447E0942EF7CF292D70
:10031000BB24C60104969D878C87F601608171819C
:1003200082819381AE014F5F5F4F0B2D0E94E305E9
:100330006C010981202E332400FF04C003FD02C09C
:100340001DE209C0F1FE02C01BE205C0F2FC02C0C2
:1003500010E001C010E2C1018C709070892BB9F1DE
:10036000112311F483E001C084E0881510F0882483
:100370000AC0881AF3FC07C080E290E0B3010E9433
:10038000D1068A94C9F7112329F0812F90E0B30197
:100390000E94D10623FE03C008E610E00EC00CE662
:1003A00010E00BC0E114F10409F0805290E0B301B9
:1003B0000E94D1060F5F1F4F05C0EF2CFF24F0E114
:1003C000EF22FF24F8018491882361F714C1F7FE1E
:1003D00012C0BC0C24FE04C08A81813309F4BA9493
:1003E0001B141CF0BB24B3942DC0F8E0FB1550F592
:1003F00038E0B32E27C0F6FC25C0892D90E08C157F
:100400009D054CF02CEFC2162FEFD20624F030E8F9
:10041000F32A01C09A94992049F0E2E0F0E0EC0F51
:10042000FD1FE90DF11D80818033A1F3F7FE0AC0A5
:10043000B92CB394892D90E0C816D90614F09924EC
:1004400001C09C18F7FC03C025E030E009C01C1473
:100450001D041CF021E030E003C096012F5F3F4FE8
:10046000112311F02F5F3F4F992029F0892D90E043
:100470000196280F391F882D90E02817390714F0AE
:10048000882401C0821A4F2C5524C20189709070B3
:10049000892B39F008C080E290E0B3010E94D106B8
:1004A0008A948820C1F7112329F0812F90E0B301AD
:1004B0000E94D10643FE07C008C080E390E0B3016C
:1004C0000E94D1068A948820C1F7F7FE46C08601B3
:1004D000D7FE02C000E010E076010894E11CF11C98
:1004E000E01AF10A41E050E04C0F5D1FE40EF51EEA
:1004F00026014B185108892D90E0AA24BB24A81A84
:10050000B90A5FEF0F3F150729F48EE290E0B301BF
:100510000E94D106C016D10634F0401651061CF4D4
:10052000F701808101C080E3015010400894E11C74
:10053000F11C0A151B052CF090E0B3010E94D106B6
:10054000E0CF0C151D0539F49A81963318F49533D4
:1005500011F424FE81E390E04BC08A81813309F0DD
:100560000F7E90E0B3010E94D1069920A1F08EE2A7
:1005700090E0B3010E94D10612E0E1E0F0E0EC0F60
:10058000FD1FE10FF11D1F5F808190E0B3010E940C
:10059000D1069A9491F744FC03C085E690E002C02E
:1005A00085E490E0B3010E94D106D7FC05C0C114D8
:1005B000D10441F404FF06C0D094C194D108D3946F
:1005C0008DE201C08BE290E0B3010E94D10680E38E
:1005D00005C08F5F26EF3FEFC20ED31E3AE0C31671
:1005E000D104BCF790E0B3010E94D106C601C096C9
:1005F000B3010E94D106CC84DD8452C1933631F020
:10060000933799F0933509F059C023C0F6018081E2
:1006100089835E010894A11CB11C22E030E0C20E67
:10062000D31E21E0E22EF12C12C0F601A080B18091
:1006300016FD03C06FEF7FEF02C0692D70E022E06E
:1006400030E0C20ED31EC5010E94C6067C011F7792
:1006500013C0F601A080B18016FD03C06FEF7FEFDD
:1006600002C0692D70E022E030E0C20ED31EC50149
:100670000E94BB067C01106813FF07C01BC080E20C
:1006800090E0B3010E94D1068A94882D90E0E8168C
:10069000F906A8F30FC0F50117FD859117FF8191A9
:1006A0005F0190E0B3010E94D10681108A94089402
:1006B000E108F108E114F10471F7F2C0943611F089
:1006C000993689F517FF08C0F601208131814281F2
:1006D000538184E090E00AC0F601808191819C0101
:1006E000442737FD4095542F82E090E0C80ED91E74
:1006F0009FE6F92EF12257FF09C05095409530959D
:1007000021953F4F4F4F5F4F90E8F92ACA01B90139
:10071000AE014F5F5F4F2AE030E00E946707E82E8E
:10072000E889EE1A41C0953721F41F7E2AE030E0B7
:100730001CC0197F9F3661F0903720F4983509F07E
:10074000B2C00FC0903739F0983709F0ACC004C080
:1007500028E030E00AC0106114FD146020E130E0B0
:1007600004C014FD166020E132E017FF08C0F60156
:10077000608171818281938144E050E008C0F6017C
:1007800080819181BC0180E090E042E050E0C40EA5
:10079000D51EAE014F5F5F4F0E946707E82E588954
:1007A000E51A8FE7F82EF122F6FE0BC08EEFF82245
:1007B000E91438F4F4FE07C0F2FC05C09FEEF922FC
:1007C00002C01E2D01C0192DF4FE0DC0FE01EE0D5C
:1007D000F11D8081803319F4E9EEFE2208C01F5F0D
:1007E000F2FE05C003C08F2D867809F01F5F0F2D24
:1007F000F3FC14C0F0FE0FC0181510F09E2C0BC0B7
:100800009E2C980C911A182D06C080E290E0B3013E
:100810000E94D1061F5F1815C0F304C0181510F40C
:10082000811A01C0882404FF0FC080E390E0B30167
:100830000E94D10602FF1DC001FD03C088E790E0C1
:100840000EC088E590E00BC0802F867891F001FF04
:1008500002C08BE201C080E2F7FC8DE290E0B301C0
:100860000E94D10606C080E390E0B3010E94D10649
:100870009A94E914C0F3EA94E1E0F0E0EC0FFD1F74
:10088000EE0DF11D808190E0B3010E94D106EE20B3
:1008900091F706C080E290E0B3010E94D1068A94ED
:1008A0008820C1F799CCF30166817781CB016196ED
:1008B000E2E10C94C8059FB7F8941092C50083E05C
:1008C0008093C40088E98093C10086E08093C200D1
:1008D0009FBF0895982F8091C00085FFFCCF909313
:1008E000C60008958091C00087FFFCCF8091C600AC
:1008F000089580E090E008951F93182F873061F0ED
:100900008A30D1F08091C00085FFFCCF1093C600E3
:1009100080E090E01F9108952091AC013091AD01ED
:1009200080E091E061E070E047E050E00E94FD0669
:1009300080E090E01F9108958DE00E947C04E2CF5A
:10094000CF92DF92EF92FF920F931F93CF93DF939B
:100950008C01E0915601F09157013097C1F08191DF
:10096000F0935701E09356018A3061F0282F30E070
:10097000C901DF91CF911F910F91FF90EF90DF9010
:10098000CF9008951092570110925601EFCF88E54D
:10099000C82E81E0D82E76018091C00087FFFCCF61
:1009A0008091C00084FD2BC08091C00083FD24C0D5
:1009B0009091C6009D3031F19A3021F1993099F033
:1009C000892F80528F3510F0903A40F1F7EAEF16F8
:1009D000F1E0FF0651F0E7019993892FB8010E94D9
:1009E0007C047E01D9CF90E2F1CF87E0B8010E946C
:1009F0007C04E7017E01D0CF2FEF3FEFB9CF2EEF80
:100A00003FEFB6CF8AE0F7018083B8010E947C04F3
:100A1000D0925701C0925601F601A1CF923109F44C
:100A200067C09331E8F4933039F3983019F0E70157
:100A30007E01B2CFF8E5EF16F1E0FF06C1F3B8F39F
:100A400088E0B8010E947C0480E2B8010E947C0426
:100A500088E0B8010E947C04E70121977E019CCFC9
:100A6000973109F19F3731F3953109F7E8E5EE1633
:100A7000E1E0FE06E1F2D8F2E70188E0B8010E9469
:100A80007C0480E2B8010E947C0488E0B8010E94E6
:100A90007C042197E1E0C835DE0709F070F7C8E56E
:100AA000D1E07E0179CF88E5E81681E0F80609F00B
:100AB00008F4BDCFE7018A91803239F4B8CFFE0146
:100AC0008291803209F48DCFEF0188E0B8010E9455
:100AD0007C0480E2B8010E947C0488E0B8010E9496
:100AE0007C04F1E0C835DF0709F048F77E0154CFF8
:100AF0008DE0B8010E947C0488E5E81681E0F806E4
:100B000009F008F494CFC8E5D1E08991B8010E94BA
:100B10007C04CE15DF05C8F3E7018ACF88E491E0B5
:100B20009093A9018093A8019093AB018093AA01AF
:100B30000E945B0488E091E00E94320785E191E029
:100B40000E94320708950E948E0588E391E00E947A
:100B5000320780E090E008952F923F924F925F928B
:100B60006F927F928F929F92AF92BF92CF92DF92BD
:100B7000EF92FF920F931F93CF93DF93CDB7DEB722
:100B8000CA1BDB0B0FB6F894DEBF0FBECDBF0994B6
:100B90002A88398848885F846E847D848C849B840D
:100BA000AA84B984C884DF80EE80FD800C811B811B
:100BB000AA81B981CE0FD11D0FB6F894DEBF0FBE4A
:100BC000CDBFED010895283008F027E03327DA0182
:100BD000990F311D87FD916000966105710539F40B
:100BE00032602E5F3D9330E32A95E1F708959F3FF1
:100BF00030F080387105610509F03C5F3C5F3D9342
:100C0000913008F08068911DDF93CF931F930F936D
:100C1000FF92EF92192F987F9695E92F96959695CA
:100C2000E90FFF27E653FF4F99273327EE24FF24D0
:100C3000A701E70105900894079428F4360FE71EF2
:100C4000F81E491F511D660F771F881F991F0694B4
:100C5000A1F70590079428F4E70EF81E491F561FC8
:100C6000C11D770F881F991F661F0694A1F7059075
:100C7000079428F4F80E491F561FC71FD11D880F6F
:100C8000991F661F771F0694A1F70590079420F41B
:100C9000490F561FC71FD81F990F661F771F881F40
:100CA0000694A9F784911095177041F0D695C795D1
:100CB00057954795F794E7941A95C1F7E0E7F0E068
:100CC00068941590159135916591959105907FE205
:100CD0007395E118F10A430B560BC90BD009C0F705
:100CE000E10CF11E431F561FC91FD01D7EF4703347
:100CF00011F48A95E6CFE894015030F0080F0AF419
:100D00000027021708F4202F2395022F7A3328F0AA
:100D100079E37D932A95E9F710C07D932A9589F6AA
:100D2000069497956795379517951794E118F10AEA
:100D3000430B560BC90BD00998F023957E91739500
:100D40007A3308F070E37C932013B8F77E917061DA
:100D50007D9330F0839571E37D9370E32A95E1F7FD
:100D60001124EF90FF900F911F91CF91DF91992760
:100D700087FD90950895FC01059061507040011029
:100D8000D8F7809590958E0F9F1F0895FC016150B4
:100D9000704001900110D8F7809590958E0F9F1F9D
:100DA00008950F931F93CF93DF938C01EB018B81F9
:100DB00081FF1BC082FF0DC02E813F818C819D81F0
:100DC0002817390764F4E881F9810193F983E883EE
:100DD00006C0E885F985802F0995892B31F48E812D
:100DE0009F8101969F838E8302C00FEF1FEFC80182
:100DF000DF91CF911F910F910895A0E0B0E0E3E063
:100E0000F7E00C94B205FC014B015A016901D901CC
:100E100013968C9181FF1EC07F01C0E0D0E014C00A
:100E2000D6011896ED91FC911997D7018C91B601D6
:100E30000995892B89F40894E11CF11C0F5F1F4F61
:100E40000815190568F32196CA15DB0528F400E09A
:100E500010E0F6CFC0E0D0E0CE01CDB7DEB7ECE0D9
:100E60000C94CE050F931F93CF93DF938C01E091E9
:100E7000AA01F091AB01838181FF21C0C0E0D0E0E5
:100E80000DC0E091AA01F091AB0120853185BF0131
:100E9000F9010995892B11F0CFEFDFEFF80181916E
:100EA0008F01882371F7E091AA01F091AB012085B1
:100EB00031858AE0BF01F9010995892B11F0CFEF47
:100EC000DFEFCE01DF91CF911F910F910895FA01CD
:100ED000AA27283051F1203181F1E8946F936E7F79
:100EE0006E5F7F4F8F4F9F4FAF4FB1E03ED0B4E06A
:100EF0003CD0670F781F891F9A1FA11D680F791FAB
:100F00008A1F911DA11D6A0F711D811D911DA11DBB
:100F100020D009F468943F912AE0269F11243019CB
:100F2000305D3193DEF6CF010895462F4770405D66
:100F30004193B3E00FD0C9F7F6CF462F4F70405D15
:100F40004A3318F0495D31FD4052419302D0A9F770
:100F5000EACFB4E0A6959795879577956795BA956A
:100F6000C9F700976105710508959B01AC010A2E30
:100F700006945795479537952795BA95C9F7620F07
:0E0F8000731F841F951FA01D0895F894FFCFC6
:100F8E002A72696E672A0A0073746172746564202E
:100F9E0055415254000A0A23232323232323235388
:100FAE0074617274757020636F6D706C65746523F7
:100FBE00232323232323230048656C6C6F20486969
:100FCE0020776F726C6421000000000300000000A7
:060FDE007C04A0040000E9
:00000001FF
